:020000040000FA
:100000000A128A11CD2F8312031337088039B800E2
:100010003808C1003708B8003807B9003908C800E7
:10002000B61F13281428152848144808031919283E
:100030001A282A28480A031D1E281F2827280030AE
:10004000B7000030B6000030B5000030B400B6177D
:10005000B70132280030B7000030B6000030B500DC
:100060000030B40033088039B8003808C1063308BE
:10007000B8003807B9003908C900B21F4028412824
:100080004228491449080319462847285728490A8D
:10009000031D4B284C2854280030B3000030B20018
:1000A0000030B1000030B000B217B3015F2800305B
:1000B000B3000030B2000030B1000030B0003308AF
:1000C000320431043004031D66286728802800307C
:1000D000B7000030B6000030B5000030B40080300A
:1000E000B6047F30B7044108B8003808B7043708B1
:1000F000B3003608B2003508B1003408B000DF297B
:100100004808031D842885288E280030B30000305D
:10011000B2000030B1000030B000DF294808B8005C
:10012000B9013908BB0049083802BA00031CBB03F7
:100130003A087F3EC2003B080318013E003EC30060
:100140003708C0003608BF003508BE003408BD00BF
:100150000030B7000030B6000030B5000030B40009
:100160000030C7000030C6000030C5000030C400B9
:10017000C901042949080319BE28BF28DF28013016
:10018000B8000310BD0DBE0DBF0DC00DB80BC128CA
:100190000130B8000310B40DB50DB60DB70DB80B96
:1001A000CA28C71FD428D528D62834140130B8004F
:1001B0000310C40DC50DC60DC70DB80BD8283308E4
:1001C0004002031DED2832083F02031DED283108CF
:1001D0003E02031DED2830083D02031CF028F128E3
:1001E000002947173008BD023108031C310FBE0239
:1001F0003208031C320FBF023308031C330FC00246
:100200000130B8003808C9071A304902031C09290F
:100210000A29BA2840083F043E043D040319112965
:1002200012293129441431290130B8000310B40DCA
:10023000B50DB60DB70DB80B1629C71F20292129FA
:10024000222934140130B8000310C40DC50DC60DA9
:10025000C70DB80B2429FF30C2070318C30AFF30AB
:10026000C307B61F342935291429C901C71F3929E5
:100270003A295629FF304405B800FF304505B9003A
:10028000FF304605BA007F304705BB003B083A0403
:100290003904380403194D294E295129C901C90AC5
:1002A0005629341C5429552956294E294908031921
:1002B0005A295B298C290130B4070030031801301A
:1002C000B507003003180130B607003003180130BD
:1002D000B707371C6C296D298C293408B8003508FC
:1002E000B9003608BA003708BB000130BC003B0D2E
:1002F000BB0CBA0CB90CB80CBC0B77293B08B70087
:100300003A08B6003908B5003808B4000130C20711
:100310000318C30A0030C3074308803AFF00803047
:100320007F02031D9529FF304202031C9829992959
:10033000A729FF3083120313C2000030C30000302E
:10034000B7000030B6000030B5000030B4008312B2
:1003500003134308803AFF0080307F02031DB22957
:10036000013042020318B529B629C32983120313A9
:10037000C201C3010030B7000030B6000030B50044
:100380000030B400C101831203134208B8003808DA
:10039000C800481CCC29CD29CF29B617D3297F30D6
:1003A000B8003808B6054808B8000310380CB90082
:1003B0003908B7004108B8003808B70477280800A2
:1003C0007130831603138F0089018701860107307E
:1003D000831603178800003083120313A90000302E
:1003E000A8002530A7008030A6000A128A153F23F6
:1003F0000A128A110B30F1008030F2000A128A15BD
:1004000006210A128A110A128A1553210A128A1128
:100410000A128A15AD200A128A110A128A15B92207
:100420000A128A110A128A15FC220A128A11003055
:1004300083160313D600D7000A128A159C250A12C8
:100440008A11003083160313D600D7000A128A15CA
:100450005A260A128A11333083160313DE00BB308A
:10046000DD00DF30DC00DC0B332ADD0B332ADE0B52
:10047000332AF5012D3083160313DC005C08F600E7
:1004800001300A128A157D210A128A11153083164D
:100490000313DE004B30DD00BD30DC00DC0B4E2AE8
:1004A000DD0B4E2ADE0B4E2A552A0A128A159D2094
:1004B0000A128A110030F000F1000A128A157C221B
:1004C0000A128A11700883160313C8007108C90044
:1004D0000030C91BFF30CA00CB0005308316031360
:1004E000DE000F30DD00F030DC00DC0B752ADD0BA8
:1004F000752ADE0B752A00000130F0000030F10093
:100500000A128A157C220A128A11700883160313B4
:10051000C4007108C5000030C51BFF30C600C7000D
:10052000053083160313DE000F30DD00F030DC00F1
:10053000DC0B982ADD0B982ADE0B982A000002308B
:10054000F0000030F1000A128A157C220A128A118A
:10055000700883160313C0007108C1000030C11B6E
:10056000FF30C200C300053083160313DE000F30D6
:10057000DD00F030DC00DC0BBB2ADD0BBB2ADE0B20
:10058000BB2A0000593083160313DC005C08831279
:100590000313A00083160313490883120313A20058
:1005A00083160313480883120313A100CC300A12E8
:1005B0008A1518270A128A11F5015D308316031374
:1005C000DC005C08F60001300A128A157D210A124F
:1005D0008A11CC30F3000030F4000A128A15E020B2
:1005E0000A128A11053083160313DE000F30DD0076
:1005F000F030DC00DC0BFA2ADD0BFA2ADE0BFA2ADB
:1006000000005330F1008030F2000A128A150621F2
:100610000A128A11CC3083160313DC005C08F00048
:1006200090300A128A15C2200A128A11633083168A
:100630000313DC005C08F00090300A128A15A9212F
:100640000A128A11603083160313DC005C088312DF
:100650000313A00083160313450883120313A2009B
:1006600083160313440883120313A100D3300A1224
:100670008A1518270A128A11603083160313DC00CA
:100680005C0883120313A00083160313410883122E
:100690000313A20083160313400883120313A1005F
:1006A000D0300A128A1518270A128A1183160313EA
:1006B000C71B6C2B4708031D6B2B4608031D6B2BB8
:1006C00001304502031D682B90304402031D682B46
:1006D00003186B2B6C2BAF2B831603134908D70021
:1006E0004808D6000A128A159C250A128A11093078
:1006F00083160313DC005C08F5004530DD005D085F
:10070000F60001300A128A157D210A128A1145303D
:1007100083160313DC005C08F00090300A128A157F
:10072000A9210A128A11633083160313DC005C08C6
:10073000F00090300A128A15A9210A128A11053098
:1007400083160313DE000F30DD00F030DC00DC0B1D
:10075000A72BDD0BA72BDE0BA72B0000E22B003015
:1007600083160313D600D7000A128A159C250A1295
:100770008A11093083160313DC005C08F50035305C
:10078000DD005D08F60001300A128A157D210A128B
:100790008A11353083160313DC005C08F0009030BA
:1007A0000A128A15A9210A128A11633083160313CB
:1007B000DC005C08F00090300A128A15A9210A12A8
:1007C0008A119F2B83160313C31BF82B4308031DA9
:1007D000F72B4208031DF72B01304102031DF42BB8
:1007E00090304002031DF42B0318F72BF82B2C2C10
:1007F000831603134908D7004808D6000A128A1541
:100800005A260A128A11F5014C3083160313DC00B4
:100810005C08F60002300A128A157D210A128A113C
:10082000243083160313DC005C08F00090300A12B9
:100830008A15A9210A128A11053083160313DE00D6
:100840000F30DD00F030DC00DC0B242CDD0B242C21
:10085000DE0B242C0000502C003083160313D6002E
:10086000D7000A128A155A260A128A11F5013D305C
:1008700083160313DC005C08F60002300A128A15A6
:100880007D210A128A11193083160313DC005C08DB
:10089000F00090300A128A15A9210A128A111C2C24
:1008A000153083160313DE004B30DD00BD30DC0055
:1008B000DC0B582CDD0B582CDE0B582C5F2C9030A9
:1008C000F1000130F2000A128A1506210A128A117B
:1008D000552A0A128A110028831203134D08803901
:1008E000D2005208D7004D08D2005207D300530857
:1008F000DD00CC1F7C2C7D2C7E2C5D145D08031943
:10090000822C832C922C5D0A031D872C882C902C22
:100910000030CD000030CC000030CB000030CA00E9
:10092000CC179A2C0030CD000030CC000030CB002A
:100930000030CA0051088039D2005208D706510849
:10094000D2005207D3005308DC00D01FA82CA92CDA
:10095000AA2C5C145C080319AE2CAF2CBE2C5C0ACC
:10096000031DB32CB42CBC2C0030D1000030D000BF
:100970000030CF000030CE00D017C62C0030D100A0
:100980000030D0000030CF000030CE005C080319EA
:10099000CA2CCB2CD02C5D08031DCF2CD02CD92CED
:1009A0000030CD000030CC000030CB000030CA0059
:1009B000CC2F4A08D2005208F00050080A128A15BB
:1009C0002C210A128A11710883120313E3007008A4
:1009D000E2006208D200D301D401D5015508DB0042
:1009E0005408DA005308D9005208D8006308D2002E
:1009F000D301D401D5015508E1005408E0005308A3
:100A0000DF005208DE004B08D2005208F0004F0809
:100A10000A128A152C210A128A11710883120313F3
:100A2000E3007008E2006208D200D301D401D501CE
:100A30005208D807530803110318013E0319212D4A
:100A4000D907540803110318013E0319282DDA07AA
:100A5000550803110318013E03192F2DDB07630806
:100A6000D200D301D401D5015208DE075308031187
:100A70000318013E03193D2DDF0754080311031825
:100A8000013E0319442DE007550803110318013EE8
:100A900003194B2DE1074C08D2005208F0004E0814
:100AA0000A128A152C210A128A1171088312031363
:100AB000E3007008E2006208D200D301D401D5013E
:100AC0005208D807530803110318013E0319692D72
:100AD000D907540803110318013E0319702DDA07D2
:100AE000550803110318013E0319772DDB0763082E
:100AF000D200D301D401D5015208DE0753080311F7
:100B00000318013E0319852DDF075408031103184C
:100B1000013E03198C2DE007550803110318013E0F
:100B20000319932DE1070830D2000310D80DD90D19
:100B3000DA0DDB0DD20B952D4B08D2005208F000D8
:100B40004E080A128A152C210A128A117108831282
:100B50000313E3007008E2006208D2006308D300C8
:100B6000D401D5015208D807530803110318013ED8
:100B70000319BB2DD907540803110318013E0319AB
:100B8000C22DDA07550803110318013E0319C92DB8
:100B9000DB074A08D2005208F0004F080A128A15F3
:100BA0002C210A128A11710883120313E3007008C2
:100BB000E2006208D2006308D300D401D5015208D4
:100BC000D807530803110318013E0319E82DD9076C
:100BD000540803110318013E0319EF2DDA075508D5
:100BE00003110318013E0319F62DDB070830D2006C
:100BF0000310D80DD90DDA0DDB0DD20BF82D4A08F4
:100C0000D2005208F0004E080A128A152C210A124E
:100C10008A11710883120313E3007008E20062086E
:100C2000D2006308D300D401D5015208D807530875
:100C300003110318013E03191E2ED907540803118E
:100C40000318013E0319252EDA075508031103186E
:100C5000013E03192C2EDB074B08D2005208F0008E
:100C600050080A128A152C210A128A11710883125F
:100C70000313E3007008E2006208D2006308D300A7
:100C8000D401D5015208DE07530803110318013EB1
:100C900003194B2EDF07540803110318013E0319F3
:100CA000522EE007550803110318013E0319592E6F
:100CB000E1074C08D2005208F0004F080A128A15CA
:100CC0002C210A128A11710883120313E3007008A1
:100CD000E2006208D2006308D300D401D5015208B3
:100CE000DE07530803110318013E0319782EDF07AE
:100CF000540803110318013E03197F2EE00755081D
:100D000003110318013E0319862EE1074C08D20097
:100D10005208F00050080A128A152C210A128A1172
:100D2000710883120313E3007008E2006208D20026
:100D30006308D300D401D50108300310D20DD30DC0
:100D4000D40DD50DFF3E031D9D2E5208DE0753081E
:100D500003110318013E0319AE2EDF0754080311D7
:100D60000318013E0319B52EE007550803110318B7
:100D7000013E0319BC2EE1075808D2005908D300E0
:100D80005A08D4005B08D50018300310D50CD40CD9
:100D9000D30CD20CFF3E031DC52E5208DE075308AC
:100DA00003110318013E0319D62EDF07540803115F
:100DB0000318013E0319DD2EE0075508031103183F
:100DC000013E0319E42EE1070830D2000310D80DCC
:100DD000D90DDA0DDB0DD20BE62E5D085C07D200D3
:100DE000D301D30D5208823EE20053080318013E9E
:100DF000FF3EE300182F0130D2000310DE0DDF0D9F
:100E0000E00DE10DD20BFD2EDB1F072F082F092F60
:100E10005E140130D2000310D80DD90DDA0DDB0DB0
:100E2000D20B0B2FFF30E2070318E30AFF30E30772
:100E3000E01F1B2F1C2FFB2EDC01DB1F202F212F7F
:100E40003D2FFF305805D200FF305905D300FF3049
:100E50005A05D4007F305B05D5005508540453046F
:100E600052040319342F352F382FDC01DC0A3D2FB3
:100E70005E1C3B2F3C2F3D2F352F5C080319412F63
:100E8000422F732F0130DE07003003180130DF07D7
:100E9000003003180130E007003003180130E1078B
:100EA000611C532F542F732F5E08D2005F08D300AC
:100EB0006008D4006108D5000130D600550DD50C6E
:100EC000D40CD30CD20CD60B5E2F5508E10054087D
:100ED000E0005308DF005208DE000130E20703188B
:100EE000E30A0030E3076308803AFF0080307F02A6
:100EF000031D7C2FFF306202031C7F2F802F8B2F5E
:100F00007F3083120313E1008030E0000030DF0007
:100F10000030DE00C02F831203136308803AFF0005
:100F200080307F02031D962F013062020318992F33
:100F30009A2FA62F003083120313E1000030E00047
:100F40000030DF000030DE00D701C02F8312031312
:100F50006208D2005208DD00FF30DE05FF30DF05F9
:100F60007F30E0050030E1055D1CB72FB82FB92FA9
:100F7000E0175D08D2000310520CD3005308E100C3
:100F80005708D2005208E1046108CD006008CC0087
:100F90005F08CB005E08CA000800831603130A121C
:100FA0008A1587200A128A11DF000A128A15882002
:100FB0000A128A11E0000A128A1589200A128A117F
:100FC000E1000A128A158A200A128A11E2008317A8
:100FD00090308400C2300A128A158B200A128A11BE
:100FE0008313A0308400D6300A128A158B200A128F
:100FF0008A1183120313EF0183010A128A11E02977
:10100000FF1B0A2883137F1883170008840A03191B
:10101000FF0A080008308A000408840A82070034A6
:10102000013400340A34003464340034E8340334C6
:1010300010342734533469347334743465346D3464
:1010400061344C3475347A3420340D340A3400342D
:101050004C3432343A344F3446344634203420341D
:101060000D340A3400344C3432343A3420344F34A2
:101070004E340D340A3400344C3445344434533443
:101080002E342E342E3400344C3431343A3420345F
:101090004F344634463400344C3432343A342034FD
:1010A0004F344634463400344C3431343A342034EE
:1010B0004F344E3400344C3432343A3420344F34CC
:1010C0004E3400344C3475347A343A34203400349D
:1010D00025346434203400344C343A34003425341C
:0810E000643400342C340034A8
:10110E00883413340034003464008001840A0406E9
:10111E000319003404068C28F000831203130C1EEE
:10112E0099289A28942870089900080001300A120C
:10113E008A15D6210A128A150830F400C930F30038
:10114E00F30BA728F40BA728AC280800831603136B
:10115E0005140730831603178800831603138514AE
:10116E0005159F171F129F12831203139E018316DC
:10117E0003139E010800F2007208F1007108F300DB
:10118E00D0280130F1007108F3070130F100710829
:10119E00F0077008840083130008F10073088400C0
:1011AE007108831780000008031DDE28DF28C82879
:1011BE000800F5287408FF00730884000A128A15C7
:1011CE0000200A128A150A128A150C220A128A1592
:1011DE000130F3070318F40A0030F4077408831281
:1011EE000313FF00730884000A128A1500200A12E6
:1011FE008A15003A031D04290529E12808001B2938
:10120E007208FF00710884000A128A1500200A1263
:10121E008A150A128A1593200A128A150130F107CF
:10122E000318F20A0030F207720883120313FF004C
:10123E00710884000A128A1500200A128A15003AD3
:10124E00031D2A292B2907290800F800F401F501AE
:10125E007008F200F3017208F6007308F700781CAC
:10126E0039293A2940297608F4070318F50A770830
:10127E00F50701300310F60DF70DFF3E031D412952
:10128E000310F80C7808031D4D294E2936297508D0
:10129E00F1007408F000080083160313880127304C
:1012AE00F400F530F300F30B5A29F40B5A290230EF
:1012BE000A128A15D6210A128A1528300A128A15A0
:1012CE00D6210A128A1501300A128A15D6210A125F
:1012DE008A150C300A128A15D6210A128A15063082
:1012EE000A128A15D6210A128A150800F800023051
:1012FE007802031883298429912975080F398038BB
:10130E00F7007708F90079080A128A15D6210A1211
:10131E008A159D2975080F39C038F7007708F9002E
:10132E0079080A128A15D6210A128A157608F30050
:10133E000030031D8030F4000A128A15E0200A12D4
:10134E008A150800F3007308F1007108F200B32942
:10135E000130F1007108F20772088400831700084B
:10136E00031DBA29BB29AF29C4290130F100710828
:10137E00F2070130F1007108F007700884000A12BC
:10138E008A150A200A128A15F10072088400710863
:10139E0080000008031DD429D529BC290800F200BD
:1013AE00F0307205F0008312031308080F39700431
:1013BE00880008118815000083120313881103306A
:1013CE00F1009730F000F00BEA29F10BEA29EF2932
:1013DE007208F00004300310F00DFF3E031DF229D9
:1013EE008312031308080F39700488008815000053
:1013FE008312031388110830F100C930F000F00B8E
:10140E00062AF10B062A0B2A0800F200F0307205AC
:10141E00F0008312031308080F39700488000815B2
:10142E00881500008312031388110330F1009730E2
:10143E00F000F00B202AF10B202A252A7208F0006A
:10144E0004300310F00DFF3E031D282A83120313F0
:10145E0008080F39700488008815000083120313E2
:10146E0088110830F100C930F000F00B3C2AF10B66
:10147E003C2A412A0800780879040319472A482A89
:10148E00772AFD01FD0A562A01300310F80DF90DD9
:10149E00FF3E031D4C2A0130FC007C08FD07F91F9E
:1014AE00592A5A2A4B2A79087B02031D602A78088A
:1014BE007A02031C632A642A6A2A7808FA027908D7
:1014CE00031CFB03FB0201300310F90CF80CFF3E6A
:1014DE00031D6B2A0130FD02031D762A772A5A2A34
:1014EE007B08F9007A08F80008007008F200023054
:1014FE000310F20DFF3E031D7F2A3C307205F300F0
:10150E00831203131F08C33973049F000130F200C6
:10151E0000309F180130013E962A0310F20DFF3E57
:10152E00031D942A0130F30000301F180130013ED4
:10153E00A22A0310F30DFF3E031DA02A73087204A6
:10154E00F40074089F049F18AD2AAE2AAA2A1E081A
:10155E00F600831603131E08F5007608F1007508D1
:10156E00F00008007130831603138F005F08F90036
:10157E006008FA006108FB006208FC0002300310EC
:10158E00F90DFA0DFB0DFC0DFF3E031DC62A0230B0
:10159E000310F90DFA0DFB0DFC0DFF3E031DCF2AB6
:1015AE007C08F3007B08F2007A08F1007908F0005D
:1015BE000030F7007A30F6001230F5000030F400FB
:1015CE000A128A1543240A128A157008FF3E8316E2
:1015DE00031392008312031397151715121492100A
:1015EE0012158316031306110800713083160313A8
:1015FE008F005F08F9006008FA006108FB006208BE
:10160E00FC0002300310F90DFA0DFB0DFC0DFF3E30
:10161E00031D092B02300310F90DFA0DFB0DFC0D05
:10162E00FF3E031D122B7C08F3007B08F2007A08A4
:10163E00F1007908F0000030F7007A30F600123031
:10164E00F5000030F4000A128A1543240A128A1596
:10165E007008FF3E831603139200831203139D1529
:10166E001D1512149210121583160313071108007C
:10167E008316031307138717831203132908F30026
:10168E002808F2002708F1002608F0000030F700C5
:10169E007A30F6001230F5000030F4000A128A1586
:1016AE0043240A128A157308FC007208FB007108A5
:1016BE00FA007008F9000030F3000030F20000303C
:1016CE00F1004030F0007C08F7007B08F6007A0845
:1016DE00F5007908F4000A128A1543240A128A15B5
:1016EE007008FF3E83160313990020309800903047
:1016FE008312031398000800F501F60170087104B7
:10170E0003198A2B8B2BC22BF701F70A992B013069
:10171E000310F00DF10DFF3E031D8F2B0130F40071
:10172E007408F707F11F9C2B9D2B8E2B0130031095
:10173E00F50DF60DFF3E031D9E2B71087302031D62
:10174E00AA2B70087202031CAD2BAE2BB52B7008A2
:10175E00F2027108031CF303F30275140130031037
:10176E00F10CF00CFF3E031DB62B0130F702031DEA
:10177E00C12BC22B9D2B7608F1007508F0000800D6
:10178E00031083120313660D670DE8006808EE0060
:10179E006E08031DD32BD42BDD2B0030E700003059
:1017AE00E6000030E5000030E400422C6408E8005A
:1017BE006508E9006608EA006708EB001F300310B1
:1017CE00EB0CEA0CE90CE80CFF3E031DE62B680857
:1017DE00EC006C08ED00E617FF30E405FF30E50580
:1017EE00FF30E6050030E7059630EE02EE1F002CC6
:1017FE00012C1B2C6E08803A973E0318072C082CE0
:10180E00092CD42B01300310E70CE60CE50CE40C8C
:10181E00FF3E031D0A2C0130E8006808EE07031D89
:10182E00192C1A2C092C322C20306E02031C202C61
:10183E00212C2D2CD42B0130E8000310E40DE50DE6
:10184E00E60DE70DE80B242C0130EE026E08031DA9
:10185E00312C322C222C6D080319362C372C422CAD
:10186E00E409E509E609E709E40A0319E50A03199B
:10187E00E60A0319E70A080083120313A101F31FF6
:10188E00492C4A2C572CF009F109F209F309F00AF8
:10189E000319F10A0319F20A0319F30AA101A10AA5
:1018AE00F71F5A2C5B2C6A2CF409F509F609F70977
:1018BE00F40A0319F50A0319F60A0319F70A013097
:1018CE00F8007808A1060030A5000030A400003012
:1018DE00A3000030A200730872047104700403198F
:1018EE00792C7A2CC72CA001A00A8A2C0130F80082
:1018FE000310F00DF10DF20DF30DF80B7F2C0130EE
:10190E00F8007808A007F31F8D2C8E2C7D2C01304B
:10191E00F8000310A20DA30DA40DA50DF80B902C2D
:10192E0073087702031DA52C72087602031DA52CE1
:10193E0071087502031DA52C70087402031CA82CD7
:10194E00A92CB82C7008F4027108031C710FF50253
:10195E007208031C720FF6027308031C730FF70252
:10196E00221401300310F30CF20CF10CF00CFF3EBC
:10197E00031DB92C0130A002031DC62CC72C8E2CC2
:10198E0021080319CB2CCC2CD72CA209A309A4090E
:10199E00A509A20A0319A30A0319A40A0319A50A81
:1019AE002508F3002408F2002308F1002208F000B5
:1019BE00080083120313AA002A080319E72CE82C47
:1019CE00FC2CA91FEB2CEC2CFC2C2609AC002709B7
:1019DE00AD002809AE002909AF00AC0A0319AD0A03
:1019EE000319AE0A0319AF0A042D2908AF002808FF
:1019FE00AE002708AD002608AC00290828042704ED
:101A0E002604031D0B2D0C2D152D0030A9000030C2
:101A1E00A8000030A7000030A6009B2D9630F900DC
:101A2E007908AB00272D0130F9007908AB0701309A
:101A3E000310AF0CAE0CAD0CAC0CFF3E031D1F2DF6
:101A4E00FE302F05031D2C2D2D2D1A2D492D013065
:101A5E00F9007908AB070130AC07003003180130EC
:101A6E00AD07003003180130AE0700300318013007
:101A7E00AF0701300310AF0CAE0CAD0CAC0CFF3E3B
:101A8E00031D412DFF302F05031D4E2D4F2D2E2DE5
:101A9E005B2D0130AB020130F9000310AC0DAD0D22
:101AAE00AE0DAF0DF90B542DAE1B5E2D5F2D652DBA
:101ABE0002302B020318642D652D502D2B18682D26
:101ACE00692D712DFF30AC05FF30AD057F30AE05B1
:101ADE00FF30AF050310AB0C2B08F900FA01FB0128
:101AEE00FC0118300310F90DFA0DFB0DFC0DFF3E35
:101AFE00031D792D7908AC047A08AD047B08AE0479
:101B0E007C08AF042A0803198D2D8E2D932DA91F45
:101B1E00912D922D932DAF172F08A9002E08A800F6
:101B2E002D08A7002C08A600080071308316031399
:101B3E008F0003305702FF30031956020318A82DE9
:101B4E00A92D592E560883120313A60083160313CC
:101B5E00570883120313A700A801A90100300A1227
:101B6E008A15E0240A128A15831203132908B70076
:101B7E002808B6002708B5002608B4004430B30084
:101B8E007F30B200C030B1000030B0000A128A11AE
:101B9E0003200A128A15831203133308D100320868
:101BAE00D0003108CF003008CE000030F7007A3078
:101BBE00F6001230F5000030F400831603135F08B0
:101BCE00D8006008D9006108DA006208DB00023034
:101BDE000310D80DD90DDA0DDB0DFF3E031DEF2DD1
:101BEE005B08F3005A08F2005908F1005808F0009B
:101BFE000A128A1543240A128A15730883120313D4
:101C0E00A9007208A8007108A7007008A60001308C
:101C1E000A128A15E0240A128A1583120313290860
:101C2E00CD002808CC002708CB002608CA000A12CF
:101C3E008A116C240A128A15831203134D08E700C9
:101C4E004C08E6004B08E5004A08E4000A128A1523
:101C5E00C7230A128A15831203136508831603130A
:101C6E00D70083120313640883160313D600561885
:101C7E00412E452E831203139716482E83120313FB
:101C8E0097121712831603135708D9005608D80057
:101C9E000310D90CD80C0310D90CD80C5808831289
:101CAE000313950008007130831603138F00033061
:101CBE005702FF30031956020318662E672E172F90
:101CCE00560883120313A6008316031357088312B4
:101CDE000313A700A801A90100300A128A15E024F7
:101CEE000A128A15831203132908B7002808B600B2
:101CFE002708B5002608B4004430B3007F30B20088
:101D0E00C030B1000030B0000A128A1103200A124E
:101D1E008A15831203133308D1003208D00031081C
:101D2E00CF003008CE000030F7007A30F6001230C7
:101D3E00F5000030F400831603135F08D800600826
:101D4E00D9006108DA006208DB0002300310D80DFA
:101D5E00D90DDA0DDB0DFF3E031DAD2E5B08F30032
:101D6E005A08F2005908F1005808F0000A128A15B4
:101D7E0043240A128A15730883120313A9007208EA
:101D8E00A8007108A7007008A60001300A128A1573
:101D9E00E0240A128A15831203132908CD0028089D
:101DAE00CC002708CB002608CA000A128A116C2420
:101DBE000A128A15831203134D08E7004C08E60039
:101DCE004B08E5004A08E4000A128A15C7230A12D6
:101DDE008A1583120313650883160313D700831223
:101DEE000313640883160313D6005618FF2E032F11
:101DFE00831203139D16062F831203139D121D12B9
:101E0E00831603135708D9005608D8000310D90CAF
:101E1E00D80C0310D90CD80C5808831203139B004E
:101E2E00080083120313AB002130A3002308A60081
:101E3E00E92F25302C060319252F262F322F2C089B
:101E4E00A3002B0884002308831380000130A30015
:101E5E002308AB07E92FA7010130A007FF302007A9
:101E6E0084000A128A150A200A128A15AC00A300F1
:101E7E00A4012408003A0319452FE92F2308003A3C
:101E8E000319FB2F643A0319502F0D3A0319502FE3
:101E9E00E92F2608840083130008A900840A00088D
:101EAE00AA000230A3002308A607AA1F5F2F602FE7
:101EBE00692F0330A3002308A704A909AA09A90AB8
:101ECE000319AA0AAC01AC0A2C08A3002307013E91
:101EDE0084000A128A150A200A128A15A4000A1210
:101EEE008A150A200A128A15A50025082A02031D42
:101EFE00822F240829020318852F862F872F912FD2
:101F0E000130A3002308AC0705302C06031D902FCB
:101F1E00912F6B2F270803390319962F972FA22F76
:101F2E002D30A3002B08840023088313800001307A
:101F3E00A3002308AB072C08A3002308A800E02F5A
:101F4E000A30F8000030F9002808A3002307013EEC
:101F5E0084000A128A150A200A128A15F0000A1243
:101F6E008A150A200A128A15F1002A08F300290898
:101F7E00F2000A128A1583230A128A157108FB00D1
:101F8E007008FA000A128A1542220A128A15780877
:101F9E00303E83120313A4002408AC002C08A300C7
:101FAE002B0884002308831380000130A30023082C
:101FBE00AB07FF30A3002308A807280A031DE82F4C
:101FCE00E92FA72F0130A007FF30200784000A1247
:101FDE008A150A200A128A15A3002308AC002C08C1
:101FEE00031DFA2FFB2F202F2B0884008313800153
:021FFE000800D9
:04400E00D520FF3F7B
:00000001FF
